:0A09C300000102020303040405050D
:1004D000E4F513F512F511F510C203C200C202C211
:1004E000011203327E087F008E238F24752B08753E
:1004F0002C1275210875221C752908752A4A752D3C
:1005000008752E78EE54C070030205CF751400757F
:1005100015808E168F17C3749A9FFF74089ECF2480
:1005200002CF3400FEE48F0F8E0EF50DF50CF50BA7
:10053000F50AF509F508AF0FAE0EAD0DAC0CAB0B1F
:10054000AA0AA909A808C312099B5031AE0AAF0B29
:10055000E5172FF582E5163EF583E0FDE5152FF54D
:1005600082E5143EF583EDF0EF2401F50BE43EF552
:100570000AE43509F509E43508F50880B98514233E
:1005800085152474002480FF740834FFFEC3E52C15
:100590009FF52CE52B9EF52BC3E5269FF526E5253B
:1005A0009EF525C3E5289FF528E5279EF527C3E599
:1005B000229FF522E5219EF521C3E52A9FF52AE534
:1005C000299EF529C3E52E9FF52EE52D9EF52DD20A
:1005D000E843D82090E668E04409F090E65CE04407
:1005E0003DF0D2AF90E680E020E105D2041207B8DA
:1005F00090E680E054F7F0538EF8C2031207FF3004
:100600000105120080C2013003F21209E150EDC26F
:100610000312092020001690E682E030E704E02073
:10062000E1EF90E682E030E604E020E0E41208C961
:050630001209E380C780
:0B09B80090E50DE030E402C322D322E2
:1000800090E6B9E0700302016A14700302021324BF
:10009000FE70030202A924FB7003020164147003C2
:1000A00002015E147003020152147003020158240D
:1000B00005600302031E1209E5400302032A90E6CD
:1000C000BBE024FE603B14605624FD6016146040C3
:1000D00024067074E52390E6B3F0E52490E6B4F0CE
:1000E00002032A1209B8500FE52B90E6B3F0E52C75
:1000F00090E6B4F002032A90E6A0E04401F0020387
:100100002AE52590E6B3F0E52690E6B4F002032A4E
:10011000E52790E6B3F0E52890E6B4F002032A90D4
:10012000E6BAE0FF1208F5AA06A9077B01EA4960D2
:100130000DEE90E6B3F0EF90E6B4F002032A90E6FD
:10014000A0E04401F002032A90E6A0E04401F0029E
:10015000032A12098902032A1209D502032A120965
:10016000CD02032A1206EE02032A1209E740030217
:10017000032A90E6B8E0247F602B14603C240260E0
:1001800003020209A200E433FF25E0FFA202E433E8
:100190004F90E740F0E4A3F090E68AF090E68B748D
:1001A00002F002032AE490E740F0A3F090E68AF020
:1001B00090E68B7402F002032A90E6BCE0547EFFC6
:1001C0007E00E0D3948040067C007D0180047C00AA
:1001D0007D00EC4EFEED4F24C3F58274093EF5839D
:1001E000E493FF3395E0FEEF24A1FFEE34E68F8227
:1001F000F583E0540190E740F0E4A3F090E68AF044
:1002000090E68B7402F002032A90E6A0E04401F02D
:1002100002032A1209E9400302032A90E6B8E02407
:10022000FE601D2402600302032A90E6BAE0B401D6
:1002300005C20002032A90E6A0E04401F002032A6E
:1002400090E6BAE0705990E6BCE0547EFF7E00E094
:10025000D3948040067C007D0180047C007D00EC0E
:100260004EFEED4F24C3F58274093EF583E493FFFF
:100270003395E0FEEF24A1FFEE34E68F82F583E0B4
:1002800054FEF090E6BCE05480FF131313541FFF9C
:10029000E0540F2F90E683F0E04420F002032A9010
:1002A000E6A0E04401F002032A1209EB507C90E63C
:1002B000B8E024FE60202402705B90E6BAE0B4014E
:1002C00004D200806590E6BAE06402605D90E6A02A
:1002D000E04401F0805490E6BCE0547EFF7E00E0F4
:1002E000D3948040067C007D0180047C007D00EC7E
:1002F0004EFEED4F24C3F58274093EF583E493FF6F
:100300003395E0FEEF24A1FFEE34E68F82F583E023
:100310004401F0801590E6A0E04401F0800C120842
:100320009C500790E6A0E04401F090E6A0E04480F5
:01033000F0DC
:0103310022A9
:030033000209DDE2
:0409DD0053D8EF32CA
:1003320090E600E054E74410F090E601E044E3F078
:1003420000000090E602746AF00000000000000065
:10035200000090E60374DEF00000000000000000E0
:100362000090E6707480F0000000000000000000C1
:10037200E490E609F000000000000000000090E6B2
:100382001074A0F000000000000000000090E611D0
:10039200F0000000000000000000E490E612F0000F
:1003A200000000000000000090E613F000000000D2
:1003B200000000000090E61474E2F000000000006B
:1003C20000000000E490E615F000000000000000CC
:1003D200000090E61AF00000000000000000007427
:1003E20009F000000000000000000090E63474C133
:1003F200F000000000000000000090E63574FFF0FD
:1004020000000000000000000090E63474C1F0001B
:10041200000000000000000090E63574FFF00000CC
:100422000000000000000090E6AF7404F00000003D
:10043200000000000000E490E6B0F00000000000C0
:100442000000000090E6AF7404F00000000000001D
:10045200000000E490E6B0F00000000000000000A0
:100462000090E6987402F000000000000000000016
:10047200E490E699F000000000000000000090E621
:10048200987402F0000000000000000000E490E612
:1004920099F000000000000000000090E604748063
:1004A200F00000000000000000007486F000000070
:1004B200000000000000E4F0000000000000000066
:0E04C2000043AF010000000000000000002217
:0107FF0022D7
:0209E100D3221F
:0209E300D3221D
:0209E500D3221B
:0809CD0090E6BAE0F51BD3220D
:1006EE0090E740E51BF0E490E68AF090E68B04F08C
:0206FE00D32205
:0809D50090E6BAE0F51AD32206
:1009890090E740E51AF0E490E68AF090E68B04F0EF
:02099900D32267
:0209E700D32219
:0209E900D32217
:0209EB00D32215
:10089C0090E6B9E0242F601204701E90E604E0FF8D
:1008AC00430780000000EFF0801190E604E0FF5356
:0C08BC00077F000000EFF08002D322C391
:0108C800220D
:1007E700C0E0C083C082D2015391EF90E65D7401EF
:0807F700F0D082D083D0E03283
:10095D00C0E0C083C0825391EF90E65D7404F0D087
:06096D0082D083D0E032CD
:10097300C0E0C083C0825391EF90E65D7402F0D073
:0609830082D083D0E032B7
:1006B800C0E0C083C082852925852A2685268285B3
:1006C8002583A37402F08521278522288528828521
:1006D8002783A37407F05391EF90E65D7410F0D070
:0606E80082D083D0E03255
:10094500C0E0C083C082D2035391EF90E65D740886
:08095500F0D082D083D0E03223
:10067B00C0E0C083C08290E680E030E72085212572
:10068B00852226852682852583A37402F08529275A
:10069B00852A28852882852783A37407F05391EF39
:0D06AB0090E65D7420F0D082D083D0E03264
:0109ED0032D7
:0109EE0032D6
:0109EF0032D5
:0109F00032D4
:0109F10032D3
:0109F20032D2
:0109F30032D1
:0109F40032D0
:0109F50032CF
:0109F60032CE
:0109F70032CD
:0109F80032CC
:0109F90032CB
:0109FA0032CA
:0109FB0032C9
:0109FC0032C8
:0109FD0032C7
:0109FE0032C6
:0109FF0032C5
:010A000032C3
:010A010032C2
:010A020032C1
:010A030032C0
:010A040032BF
:010A050032BE
:010A060032BD
:010A070032BC
:010A080032BB
:010A090032BA
:010A0A0032B9
:010A0B0032B8
:010A0C0032B7
:010A0D0032B6
:010A0E0032B5
:010A0F0032B4
:010A100032B3
:100800001201000200000040B404041000000102C4
:1008100000010A06000200000040010009022E004B
:1008200001010080320904000004FF0000000705F8
:10083000020200020007050402000200070586020A
:100840000002000705880200020009022E000101D3
:100850000080320904000004FF00000007050202C6
:100860004000000705040240000007058602400022
:100870000007058802400000040309041003430038
:100880007900700072006500730073000E034C0065
:0C08900049002D005500530042000000FC
:1008C90090E682E030E004E020E60B90E682E0303A
:1008D900E119E030E71590E680E04401F07F147EED
:0C08E9000012063590E680E054FEF0227C
:1007B80030040990E680E0440AF0800790E680E083
:1007C8004408F07FDC7E0512063590E65D74FFF084
:0F07D80090E65FF05391EF90E680E054F7F02247
:0208F500A90751
:1008F700AE2DAF2E8F828E83A3E064037017AD01F8
:1009070019ED7001228F828E83E07C002FFDEC3E73
:08091700FEAF0580DFE4FEFFE6
:01091F0022B5
:1009200090E682E044C0F090E681F0438701000049
:0409300000000022A1
:100635008E188F1990E600E054187012E519240100
:10064500FFE43518C313F518EF13F519801590E677
:1006550000E05418FFBF100BE51925E0F519E51862
:1006650033F518E5191519AE18700215184E600501
:0606750012093480EE22A0
:100934007400F58690FDA57C05A3E582458370F9D6
:010944002290
:03004300020700B1
:03005300020700A1
:100700000207E7000209730002095D0002094500C3
:100710000206B80002067B000209ED000209EE00A5
:100720000209EF000209F0000209F1000209F200DB
:100730000209F3000209F4000209F5000209F600BB
:100740000209F7000209EE000209F8000209F900A7
:100750000209FA000209FB000209FC000209FD007F
:100760000209FE000209EE000209EE000209EE0095
:100770000209FF00020A0000020A0100020A020048
:10078000020A0300020A0400020A0500020A060027
:10079000020A0700020A0800020A0900020A0A0007
:1007A000020A0B00020A0C00020A0D00020A0E00E7
:0807B000020A0F00020A10000A
:030000000209AC46
:0C09AC00787FE4F6D8FD75812E0204D09F
:10099B00EB9FF5F0EA9E42F0E99D42F0E89C45F0B2
:0109AB002229
:00000001FF
